:020000040000FA
:06000000CFEF0DF012002D
:020006001200E6
:06000800C6EF06F0120035
:02000E000100EF
:0C001000C81B0000D20000002C00000003
:04001C000001040ECD
:10002000956FD3EC04F07F0EE66E150EE66E3DEC98
:1000300008F0E552E552BD0EE66E150EE66E3DEC9B
:1000400008F0E552E552D50EE66E150EE66E3DEC73
:1000500008F0E552E552EE0EE66E150EE66E3DEC4A
:1000600008F0E552E552080EE66E160EE66E3DEC1F
:1000700008F0E552E5521F0EE66E160EE66E3DECF8
:1000800008F0E552E552360EE66E160EE66E3DECD1
:1000900008F0E552E552530EE66E160EE66E3DECA4
:1000A00008F0E552E5526B0EE66E160EE66E3DEC7C
:1000B00008F0E552E552840EE66E160EE66E3DEC53
:1000C00008F0E552E5529B0EE66E160EE66E3DEC2C
:1000D00008F0E552E552B00EE66E160EE66E3DEC07
:1000E00008F0E552E552BD0EE66E160EE66E3DECEA
:1000F00008F0E552E55200019FA9F1D157EC07F055
:100100000001836F720EE66E150EE66E3DEC08F090
:10011000E552E5520001B651B81902E1B751B919DB
:1001200001E19F99300E835D05E38351370802E3B7
:1001300083C0FCF08351730A01E132D1200A01E14E
:10014000B4D06C0A59E0080A4EE0010A43E0030A01
:1001500038E0010A2DE0070A22E0010A17E0030A4D
:100160000CE0010A01E097D1BD0EE66E150EE66EB9
:100170003DEC08F0E552E5528ED1D50EE66E150E37
:10018000E66E3DEC08F0E552E55285D1EE0EE66EE6
:10019000150EE66E3DEC08F0E552E5527CD1080EF6
:1001A000E66E160EE66E3DEC08F0E552E55273D1B0
:1001B0001F0EE66E160EE66E3DEC08F0E552E552B7
:1001C0006AD1360EE66E160EE66E3DEC08F0E5528C
:1001D000E55261D1530EE66E160EE66E3DEC08F068
:1001E000E552E55258D16B0EE66E160EE66E3DEC0A
:1001F00008F0E552E5524FD1BD0EE66E150EE66EE3
:100200003DEC08F0E552E552D50EE66E150EE66EB1
:100210003DEC08F0E552E552EE0EE66E150EE66E88
:100220003DEC08F0E552E552080EE66E160EE66E5D
:100230003DEC08F0E552E5521F0EE66E160EE66E36
:100240003DEC08F0E552E552360EE66E160EE66E0F
:100250003DEC08F0E552E552530EE66E160EE66EE2
:100260003DEC08F0E552E5526B0EE66E160EE66EBA
:100270003DEC08F0E552E552840EE66E160EE66E91
:100280003DEC08F0E552E5529B0EE66E160EE66E6A
:100290003DEC08F0E552E552B00EE66E160EE66E45
:1002A0003DEC08F0E552E552F6D00001530EFC6F2C
:1002B000BD0EE66E160EE66E3DEC08F0E552E55218
:1002C000720EE66E150EE66E3DEC08F0E552E55254
:1002D000BD0EE66E150EE66E3DEC08F0E552E552F9
:1002E000D50EE66E150EE66E3DEC08F0E552E552D1
:1002F000EE0EE66E150EE66E3DEC08F0E552E552A8
:10030000080EE66E160EE66E3DEC08F0E552E5527C
:100310001F0EE66E160EE66E3DEC08F0E552E55255
:10032000360EE66E160EE66E3DEC08F0E552E5522E
:10033000530EE66E160EE66E3DEC08F0E552E55201
:100340006B0EE66E160EE66E3DEC08F0E552E552D9
:10035000840EE66E160EE66E3DEC08F0E552E552B0
:100360009B0EE66E160EE66E3DEC08F0E552E55289
:10037000B00EE66E160EE66E3DEC08F0E552E55264
:10038000E66AE66AFDC0E6FF56EC06F0E552E55285
:10039000E552BB6ABE6ACD90CA940001CE6B7BD099
:1003A0000001730EFC6FBD0EE66E160EE66E3DECA0
:1003B00008F0E552E552720EE66E150EE66E3DEC63
:1003C00008F0E552E552BD0EE66E150EE66E3DEC08
:1003D00008F0E552E552D50EE66E150EE66E3DECE0
:1003E00008F0E552E552EE0EE66E150EE66E3DECB7
:1003F00008F0E552E552080EE66E160EE66E3DEC8C
:1004000008F0E552E5521F0EE66E160EE66E3DEC64
:1004100008F0E552E552360EE66E160EE66E3DEC3D
:1004200008F0E552E552530EE66E160EE66E3DEC10
:1004300008F0E552E5526B0EE66E160EE66E3DECE8
:1004400008F0E552E552840EE66E160EE66E3DECBF
:1004500008F0E552E5529B0EE66E160EE66E3DEC98
:1004600008F0E552E552B00EE66E160EE66E3DEC73
:1004700008F0E552E552E66AE66AFDC0E6FF56EC92
:1004800006F0E552E552E552BB6ABE6ACD90CA94C9
:100490000001CE6B00D04E0E0001835D03E06E0EB6
:1004A000835D0BE1840EE66E160EE66E3DEC08F001
:1004B000E552E5520001200EFD6F410E0001835D03
:1004C00003E0610E835D0BE19B0EE66E160EE66E99
:1004D0003DEC08F0E552E5520001380EFD6F0001D9
:1004E0009FAF05D09F9F962B000E97239F85F3DA31
:1004F000300E0001FC5D20E1F2988182CD90CA941B
:100500000001A0AB19D0A09BCDC0E6FFE66AFDC0FC
:10051000E6FFCCDBE552E552E5520001A0A906D08A
:10052000CD91CD43CD0501E1A09906D0CD9FCD471A
:10053000800ECD5D01E1A089310E0001FC5D27E157
:10054000F2988182CD90CA840001A0AB20D0A09BFC
:10055000A0A90FD0140EBB26BE26BB50006E016AA8
:10056000013404E200508008000E015401E2A09919
:100570000ED0140EBB5EBE5EBB50140808E3A0890B
:10058000807C8050400B02E0809E01D0808E320E35
:100590000001FC5D53E1F2988192CD90CA94000174
:1005A000A0AB4CD0A09B0001DB417F0B006ED6417D
:1005B0007F0B0024E66EE66AFDC0E6FF77DBE552BE
:1005C000E552E552A20EE66E000EE66E0001D6512F
:1005D000E66EE66A9CEC0BF0E552E552E552E55218
:1005E000A20EE66E000EE66E0BEC08F0E552E55248
:1005F000750EE66E150EE66E3DEC08F0E552E5521E
:10060000A20EE66E000EE66E0001DB51E66EE66AB3
:100610009CEC0BF0E552E552E552E552A20EE66E77
:10062000000EE66E0BEC08F0E552E552720EE66E37
:10063000150EE66E3DEC08F0E552E552330E000172
:10064000FC5D57E10001A0AB54D0F2988182CD90BF
:10065000CA94A09B9FAD4DD0510EE66EE66AE00EA7
:10066000E66E79EC08F0E552E552E55200019F9DF7
:100670009FADFED7020EE66EE00EE66E31EC09F09D
:10068000E552E552F3CF93F0F4CF94F000019F9D33
:10069000FF0ED8809355000E945504E2FF0E93157B
:1006A000936F946B93C0E6FFE66AFDC0E6FFFEDA47
:1006B000E552E552E552A20EE66E000EE66E93C0DC
:1006C000E6FF94C0E6FF9CEC0BF0E552E552E552E4
:1006D000E552A20EE66E000EE66E5CEC08F0E55206
:1006E000E552720EE66E150EE66E3DEC08F0E55230
:1006F000E552340E0001FC5D01E076D0F298818273
:10070000CD80CA940001A0AB6FD0A09B9FA56CD0F8
:100710009F95CF051BE1210E9A27000E9B239AC0BF
:1007200098F09BC099F0200ED88098574E0E99579C
:10073000050ECE27340ED8809A55080E9B5505E23B
:10074000340E9A6F080E9B6FCF6B1AD0210E9A5FF2
:10075000000E9B5B9AC098F09BC099F0200ED88049
:1007600098574E0E9957050ECE5F840E9A5D030E74
:100770009B5906E2840E9A6F030E9B6F010ECF6F9A
:10078000CEC0E6FFE66AFDC0E6FF90DAE552E5522C
:10079000E552A20EE66E000EE66ECEC000F0016AD3
:1007A00000BE016800C0E6FF01C0E6FF9CEC0BF054
:1007B000E552E552E552E552A20EE66E000EE66EF7
:1007C0000BEC08F0E552E552790EE66E150EE66E7A
:1007D0003DEC08F0E552E552720EE66E150EE66E3F
:1007E0003DEC08F0E552E552350E0001FC5D5FE19D
:1007F000F2888182CD90CA9400019FAB58D09F9B14
:10080000C50EE66E000EE66EF40EE66E000EE66EA7
:10081000A20EE66ED2EC09F0006E050EE15E00500D
:10082000C6C083F00F0E00018315E66EE66AFDC0B8
:10083000E6FF3CDAE552E552E5520F0E0001831562
:10084000030A2DE0020A22E0040A17E0010A0CE084
:10085000060A01E02CD0CA0EE66E160EE66E3DECDE
:1008600008F0E552E55223D0D90EE66E160EE66E7C
:100870003DEC08F0E552E5521AD0E80EE66E160E91
:10088000E66E3DEC08F0E552E55211D0F80EE66E4A
:10089000160EE66E3DEC08F0E552E55208D0080E63
:1008A000E66E170EE66EE9DBE552E55200D0360E35
:1008B0000001FC5D46E1F29881828050100B01E05E
:1008C000010E006E00019F51010B005C11E0800ED3
:1008D0008319800B836F9F918050100B01E09F81E3
:1008E0009F87180EE66E170EE66EC7DBE552E552DF
:1008F0008250010B006E00019F51020B01E0010EBE
:10090000005C11E0400E8319400B836F9F9382506F
:10091000010B01E09F839F87280EE66E170EE66E9F
:10092000ACDBE552E55200019FA70BD083C0E6FF88
:10093000E66AFDC0E6FFBAD9E552E552E55200018C
:100940009F97370E0001FC5D2BE1F2988182000138
:10095000A0AB26D0A09BE0C0E6FFE66AFDC0E6FFA4
:10096000A5D9E552E552E552A20EE66E000EE66EFE
:100970000001E051E66EE66A9CEC0BF0E552E552B0
:10098000E552E552A20EE66E000EE66E44DBE5523D
:10099000E552720EE66E150EE66E6FDBE552E5521D
:1009A0007BEF00F01200700ED36E9B8CF29E1F0E38
:1009B000926EDD0E936E990E946E818AF18E818215
:1009C000F18CF298F00EC1140C09C16ECF0EC11457
:1009D0000009C16EC30EC2140009C26EF80EC01425
:1009E0000609C06EC09EC70EC0143809C06EC28012
:1009F000D76AD66AD58CD59AD596F80ED514010942
:100A0000D56EF28AD58ECD8ECD92CD84CF0ECD14FB
:100A10003009CD6EFA0ECF6E240ECE6E9D80CD9035
:100A2000CB68FC0ECA140209CA6E870ECA140009EC
:100A3000CA6EF00EBD140C09BD6ECF0EBD140009B8
:100A4000BD6EBB6AF00EBA140C09BA6ECF0EBA14A2
:100A50000009BA6EBE6ACA94240EAC6E900EAB6EDC
:100A6000B86ACF0EAF6E0001BA6BA20EB86F000E5F
:100A7000B96FB8C0B6F0B9C0B7F0948E949C9E9888
:100A80009D8A94869488280EC66E7F0EC86EF28C5E
:100A9000F28E846B856B866B876B836B9F9F829ACC
:100AA000809C809E9F9BDC0E9A6F050E9B6F9AC068
:100AB00098F09BC099F0200ED88098574E0E995709
:100AC0009F9D010ECD6FA099CF6FBE6ABB6A809CBF
:100AD000808ECE6B1200D9CFE6FFE1CFD9FFE65270
:100AE000C2B253D0C450DF6E0001F151020A1BE0C4
:100AF000030A0EE0010A01E021D0DFCFE6FFD20EAB
:100B0000E66E000EE66E46D8E552E552E55216D086
:100B1000DFCFE6FFD70EE66E000EE66E3BD8E5525D
:100B2000E552E5520BD0DFCFE6FFDC0EE66E000E9D
:100B3000E66E30D8E552E552E55200D00001F12BC7
:100B4000020EE76EF119E8AE02D0F13503D0E7509E
:100B5000D880F15510E2F16BF22B030EE76EF2191B
:100B6000E8AE02D0F23503D0E750D880F25503E268
:100B7000F26B010EF36FF1510F0BF36EF346F34678
:100B8000C30EC214F310C26EC282E552E552E7CF23
:100B9000D9FF1200D9CFE6FFE1CFD9FF030EE1263E
:100BA000010EDB6A020EDB6A010EDF6EDFCF00F0A2
:100BB000040EE76E0018E8AE02D0E73402D0E7502A
:100BC000005C3AE2DFCF02F0036A02BE0368FD0E6A
:100BD000DB500224E96EFE0EDB500320EA6EEF507C
:100BE000006E016AD950010FE96EDACFEAFF0050BA
:100BF000EE260150ED22DFCF02F0036A02BE036849
:100C0000FD0EDB500224E96EFE0EDB500320EA6E7F
:100C1000EF50E66EDF04006E016A00BE0168FD0E53
:100C2000DB500024E96EFE0EDB500120EA6EE55237
:100C3000E750EF6EDF2ABAD7FC0EDB50E76E010EED
:100C4000DBCF00F0020EDBCF01F0E7500026000EF4
:100C50000122D89001320032D89001320032040EC5
:100C6000E76EFD0EDBCFE9FFFE0EDBCFEAFFE750BC
:100C7000E926000EEA2200C0EFFF030EE76EFD0E2C
:100C8000DBCFE9FFFE0EDBCFEAFFE750E926000EDF
:100C9000EA22FC0EDBCFEFFF030EE15C02E2E16A29
:100CA000E552E16EE552E7CFD9FF1200D9CFE6FF5A
:100CB000E1CFD9FFE652FD0EDB0430E11F0EC51473
:100CC00003E1C750040B01E0F9D7C580C5B0FED7DA
:100CD000FD0EDBCFE6FFFE0EDB50E824E552E724F5
:100CE000C96EC7B0FED7C5BCFED7C750040B01E024
:100CF000010E006E1F0EC514001002E0C586F5D768
:100D0000C7A0FED7C950DF6EC58AC588C5B8FED753
:100D1000C584C5B4FED79E96DF5033D0FD0EDB50A0
:100D200030E11F0EC51403E1C750040B01E0F9D7F1
:100D3000C580C5B0FED7FD0EDBCFE6FFFE0EDB5053
:100D4000E824E552E724C96EC7B0FED7C5BCFED77C
:100D50001F0EC51403E1C750040B01E0F9D7FC0EC8
:100D6000DB1CC96EC7B0FED7C5BCFED71F0EC514AD
:100D700003E1C750040B01E0F9D7C584C5B4FED721
:100D80009E96E552E552E7CFD9FF1200DACFE4FF95
:100D9000E2CFDAFFE9CFE4FFEACFE4FFE652F2A4C4
:100DA0002AD0F2940001842B000E85230001080E46
:100DB000841901E1855107E10001862B000E87238C
:100DC0000001846B856B0001640E861901E1875177
:100DD00012E1000195070001955106E10001040EA2
:100DE000956F817A0001A08B0001866B876B0001F3
:100DF0009F8F00019F8D9EB29E929EA02FD0CD907E
:100E00009E9082AA16D0829A98C0D0F099C0D1F054
:100E10000001FF0ED880D057FF0ED157D1C006F089
:100E2000076A0650CF6E0001D051CE6E0000CD8013
:100E300015D0828A9AC0D0F09BC0D1F00001FF0E7D
:100E4000D880D057FF0ED157D1C006F0076A0650A0
:100E5000CF6E0001D051CE6E0000CD809EAA1AD078
:100E60009E9AAECFA1F00001B8C0E9FFB9C0EAFF79
:100E7000B82B000EB923A1C0EFFF0001B60EB85D7C
:100E8000000EB95905E30001A20EB86F000EB96F4C
:100E900000019F89F2A203D0F29200019F8BE552DC
:100EA000E5CFEAFFE5CFE9FFE5CFDAFF1100D9CFC3
:100EB000E6FFE1CFD9FFE6520001B851B61902E1D1
:100EC000B951B71901E1F8D7B6C0E9FFB7C0EAFFD9
:100ED000B62B000EB723EFCFDFFFB60EB65D000EC8
:100EE000B75904E3A20EB66F000EB76FDF5000D003
:100EF000E552E552E7CFD9FF12000001B651B85DC7
:100F0000006EB951B755016E005000D01200D9CF14
:100F1000E6FFE1CFD9FFACA2FED7FE0EDB50AD6EEF
:100F20009EA8FED7E552E7CFD9FF1200D9CFE6FF42
:100F3000E1CFD9FF030EE126FD0EDBCFDEFFDBCFD5
:100F4000DDFFB5DFE76E020EE7CFDBFFFC0EDB5007
:100F5000F36E020EDB50F35C0DE0FD0EDBCFE9FF1C
:100F6000DB2AFE0EDBCFEAFF01E3DB2A020EDBCF3A
:100F7000EFFFE7D7FD0EDBCFE9FFFE0EDBCFEAFF89
:100F8000EF6ADECF00F0DDCF01F000C0F3FF01C05B
:100F9000F4FF030EE15C03E200D0E16AE552E16E8A
:100FA000E552E7CFD9FF1200D9CFE6FFE1CFD9FF55
:100FB000030EE126DE6ADD6AFD0EDBCFF6FFFE0ED4
:100FC000DBCFF7FF0800F55018E0FD0EDBCFF6FF92
:100FD000FE0EDBCFF7FF0800020EF5CFDBFFDBCF05
:100FE000E6FF95DFE552FD0EDB2AFE0E01E3DB2A6C
:100FF000DF2A010E01E3DB2ADFD7010EF36EF46A6C
:10100000030EE15C03E200D0E16AE552E16EE552D5
:10101000E7CFD9FF1200D9CFE6FFE1CFD9FF020E0B
:10102000E126DE6ADD6AFD0EDBCFE9FFFE0EDBCFD7
:10103000EAFFEF5014E0FD0EDBCFE9FFFE0EDBCF41
:10104000EAFFEF50E66E63DFE552DF2A010E01E3AF
:10105000DB2AFD0EDB2AFE0E01E3DB2AE4D7010EBC
:10106000F36EF46A020EE15C03E200D0E16AE5523D
:10107000E16EE552E7CFD9FF1200D9CFE6FFE1CF0D
:10108000D9FFACA2FED7FD0EDBCFF6FFFE0EDBCF05
:10109000F7FF0800F550AD6EFD0EDB2ADBCFF6FF43
:1010A000FE0E01E3DB2ADBCFF7FF0800F550E9E194
:1010B000E552E7CFD9FF1200D9CFE6FFE1CFD9FF44
:1010C000ACA2FED7FD0EDBCFE9FFFE0EDBCFEAFFC1
:1010D000EF50AD6EFD0EDB2ADBCFE9FFFE0E01E324
:1010E000DB2ADBCFEAFFEF50EBE1E552E7CFD9FF98
:1010F0001200D9CFE6FFE1CFD9FF020EE126DF6A69
:10110000DE520A0EDD6EFE0EDBCFE6FF44EC0DF084
:10111000E552DF6E010EDB06DF500EE0010EDBCF85
:1011200000F0000EE76E0018E8AE02D0003403D0E5
:10113000E750D8800054E7E3DE520A0EDD6EFC0E65
:10114000DBCFE6FFFD0EDBCFE6FFFE0EDBCFE6FFDB
:10115000F7EC0CF0E552E552E552DF6E010EDB06CE
:10116000DF500EE0010EDBCF00F0000EE76E00183E
:10117000E8AE02D0003403D0E750D8800054DFE35B
:10118000020EE15C02E2E16AE552E16EE552E7CF70
:10119000D9FF1200D9CFE6FFE1CFD9FF040EE12637
:1011A000020EDB6A0A0EF36E030EF3CFDBFFFE0EB8
:1011B000DBCFE6FF44EC0DF0E552E76E020EE7CF21
:1011C000DBFF030EDB06020EDB500EE0030EDBCF6F
:1011D00000F0000EE76E0018E8AE02D0003403D035
:1011E000E750D8800054E3E30A0EF36E030EF3CF0A
:1011F000DBFFFD0EDBCFE6FFFE0EDBCFE6FF36ECBE
:101200000CF0E552E552F3CFDEFFF4CFDDFF030E25
:10121000DB06D9CFE9FFDACFEAFFEE50ED100EE0A2
:10122000030EDBCF00F0000EE76E0018E8AE02D030
:10123000003403D0E750D8800054DBE3DECF00F069
:10124000DDCF01F000C0F3FF01C0F4FF040EE15C4C
:1012500003E200D0E16AE552E16EE552E7CFD9FF43
:101260001200D9CFE6FFE1CFD9FF060EE126040E2A
:10127000DB6A0A0EF36E050EF3CFDBFFFE0EDBCF4B
:10128000E6FF44EC0DF0E552E76E040EE7CFDBFF1E
:10129000050EDB06040EDB500EE0050EDBCF00F082
:1012A000000EE76E0018E8AE02D0003403D0E7501D
:1012B000D8800054E3E30A0EF36E050EF3CFDBFF94
:1012C000FD0EDBCFE6FFFE0EDBCFE6FF36EC0CF0CB
:1012D000E552E552020EF3CFDBFF030EF4CFDBFF46
:1012E000050EDB06030EDB500EE0050EDBCF00F033
:1012F000000EE76E0018E8AE02D0003403D0E750CD
:10130000D8800054DDE3030EDB5002E0DF6806D036
:10131000020EDB50E76E010EE7CFDBFF0A0EF36E25
:10132000050EF3CFDBFFFD0EDB28E66EFE0EDBCFF6
:10133000E6FF36EC0CF0E552E552020EF3CFDBFF90
:10134000030EF4CFDBFF050EDB06030EDB500EE0D1
:10135000050EDBCF00F0000EE76E0018E8AE02D0FD
:10136000003403D0E750D8800054DDE3030EDB5097
:1013700003E0010EDB6803D0020EDB50DF6EDECF30
:1013800000F0DDCF01F000C0F3FF01C0F4FF060E56
:10139000E15C03E200D0E16AE552E16EE552E7CF9D
:1013A000D9FF1200D9CFE6FFE1CFD9FF020EE12627
:1013B000DF6A1F0EC51403E1C750040B01E0F9D723
:1013C000C580C5B0FED7010EC9CFDBFFFE0EDB50D6
:1013D000C96EC6BEDF68C7B0FED71F0EC51403E1D5
:1013E000C750040B01E0F9D7C5AC03D0FE0EDF6E89
:1013F00001D0DF6AFF0EDF5C04E1010EC9CFDBFF25
:10140000C69EDF50E3E1FC0EDBCFE9FFFD0EDBCF34
:10141000EAFFEF50C96EFC0EDBCFE9FFDB2AFD0EC1
:10142000DBCFEAFF01E3DB2AC6BEDF68C7B0FED729
:101430001F0EC51403E1C750040B01E0F9D7C5AC7A
:101440002DD0FE0EDF6E1F0EC51403E1C750040B36
:1014500001E0F9D7C582C5B2FED7010EC9CFDBFFC7
:10146000FE0EDB50C96EC6BEDF68C7B0FED71F0ECA
:10147000C51403E1C750040B01E0F9D7C5AC03D094
:10148000FE0EDF6E01D0DF6AFF0EDF5C04E1010EAD
:10149000C9CFDBFFC69EDF50E3E101D0DF6AFF0E5C
:1014A000DF5C04E1010EC9CFDBFFC69EDF50ABE17C
:1014B000C950A9E11F0EC51403E1C750040B01E098
:1014C000F9D7C582C5B2FED7010EC9CFDBFFFE0E2C
:1014D000DB500109C96EC6BEDF68C7B0FED71F0E5C
:1014E000C51403E1C750040B01E0F9D7C5AC03D024
:1014F000FE0EDF6E01D0DF6AFF0EDF5C04E1010E3D
:10150000C9CFDBFFC69EDF50E2E1C586C7A0FED78C
:10151000FA0EDBCFE9FFFB0EDBCFEAFFC9CFEFFF0F
:10152000C5B6FED7FA0EDBCFE9FFDB2AFB0EDBCF19
:10153000EAFF01E3DB2AC95005E0C59AC588C5B8B2
:10154000FED704D0C58AC588C5B8FED7C950DDE12D
:10155000C584C5B4FED7DF50006E020EE15C03E225
:1015600000D0E16AE552E16E0050E552E7CFD9FFC5
:02157000120067
:0E1572000D0A00202D2000206465672E002049
:101580002A2A2A2A2A202050494331386632353205
:101590003020524F424F542049534D494E20314143
:1015A0002020762E2032303132202A2A2A2A2A2060
:1015B00039363030204E203820310D0A0030202DB1
:1015C0002D3E204368656E696C6C617264204C65C9
:1015D00064730D0A0031202D2D3E20566974657309
:1015E000736573204D6F74657572730D0A00322038
:1015F0002D2D3E20436170746575727320446973AC
:10160000742E2049520D0A0033202D2D3E204469AE
:101610007374616E636520536F6E61720D0A0034DE
:10162000202D2D3E20526F746174696F6E20536FB0
:101630006E61720D0A0035202D2D3E204C656374BD
:101640007572652054656C65636F6D6D616E646560
:101650000D0A0036202D2D3E20436170742E20434C
:1016600068656E696C6C65730D0A0037202D2D3E20
:101670002054656E73696F6E20426174746572697F
:10168000650D0A004E202D2D3E205043463835373B
:1016900034206E6F726D616C0D0A0041202D2D3E5D
:1016A000205043463835373420412021210D0A008F
:1016B0003F202D2D3E2048454C500D0A0053202D33
:1016C0002D3E2053746F700D0A00546F756368656A
:1016D0002048415554450D0A00546F7563686520D4
:1016E00042415353450D0A00546F756368652047A6
:1016F00041554348450D0A00546F756368652044A1
:10170000524F4954450D0A00546F75636865204374
:10171000454E5452450D0A00526F746174696F6EE4
:101720002044204F4B0D0A00526F746174696F6E34
:081730002047204F4B0D0A0079
:08173800D9CFE6FFDACFE6FF8E
:10174000FA0EE3CFD9FFFB0EE3CFDAFFFD0EE35233
:1017500009E72D0EDE6EFC0EE31EE32AFD0ED8B463
:10176000E306E31EE652E652E652FD0EE124E76E82
:10177000FF0EE220E46EE652F70EE3CFE6FFF70E2F
:10178000E3CFE6FF0CEC0CF0F90EE124E96EFF0E5E
:10179000E220EA6EFCEC0BF00AE1F9EC0BF009E157
:1017A000FCEC0BF008E1F9EC0BF007E108D007ECDA
:1017B0000CF002EC0CF007EC0CF002EC0CF007EC77
:1017C0000CF0DE6AF90EE126FF0EE222FF0EE3CFF7
:1017D000DAFFE552FF0EE3CFD9FFE552FC0EE1241C
:1017E000E96EFF0EE220EA6EEECFF3FFEFCFF4FFDB
:1017F0001200EF380F0B1200EF500F0B02E1EE5208
:10180000D8841200EF380F0B300FDE6E1200EE504E
:101810000F0B300FDE6E1200FC0EE3CFE9FFFD0E62
:10182000E3CFEAFF100EE66EEE6AEE6AEF6AD8903A
:10183000FD0EE336FE0EE336ED36ED36EF36FF0EE7
:10184000E30609E02DEC0CF0EE522DEC0CF0EE521C
:101850002DEC0CF0EDD7E56E1200030EEF24E8B688
:0C186000EF6E300EEF24E8BEEF6E000CBF
:04186C00D9CFE6FFEB
:10187000DACFE6FFE1CFD9FFE2CFDAFFDDEC0DF002
:10188000C580C5A003D0FDD7C5B0FED7A1B63BD05B
:10189000FD0E57D804E0C584C5B4FED71ED0C5BC24
:1018A0003DD0FC0E4ED804E0C584C5B4FED715D09B
:1018B000C5BC2FD0C582C5A203D0FDD7C5B2FED707
:1018C000A1B621D0FD0EDB28E66E86EC0DF0E552C8
:1018D000000905E0C584C5B4FED7FD0E23D0C5BC04
:1018E00014D0C586C5B6FED7C58AC588C5A803D09D
:1018F000FDD7C5B8FED7C584C5A403D0FDD7C5B4F0
:10190000FED7A1A612D0F3680ED0C584C5B4FED709
:1019100003D0C584C5B4FED7FE0E04D0C584C5B4BB
:10192000FED7FE0EF36EF46806D0C950006E016A51
:10193000F36E01C0F4FFE552E5CFDAFFE7CFD9FF40
:101940001200DBCFE6FF86EC0DF0E5520009120035
:101950000E0EF66E000EF76E000EF86E0101090015
:10196000F550056F0900F550066F03E1056701D0DA
:101970003DD00900F550006F0900F550016F0900D6
:10198000F550026F09000900F550E96E0900F550A5
:10199000EA6E090009000900F550036F0900F550CF
:1019A000046F09000900F6CF07F1F7CF08F1F8CF6F
:1019B00009F100C1F6FF01C1F7FF02C1F8FF010103
:1019C000035302E1045307E00900F550EE6E0307EC
:1019D000F8E20407F9D707C1F6FF08C1F7FF09C10C
:0E19E000F8FF01010507000E065BBFD71200DD
:0219EE00D9CF4F
:1019F000E6FFDACFE6FFE1CFD9FFE2CFDAFFDDEC99
:101A00000DF0C580C5A003D0FDD7C5B0FED7A1B6E7
:101A10002BD0FD0E32D804E0C584C5B4FED711D05A
:101A2000C5BC15D0FC0E29D804E0C584C5B4FED7CA
:101A300008D0C5BC08D0FB0E20D80EE0C584C5B4C4
:101A4000FED7FD0E14D0C584C5B4FED703D0C5841F
:101A5000C5B4FED7FE0E0BD0C584C5A403D0FDD7F8
:101A6000C5B4FED7A1A602D0FF0E01D0000EE552EC
:101A7000E5CFDAFFE7CFD9FF1200DBCFE6FF86EC38
:081A80000DF0E552000912000F
:081A8800D9CFE6FFDACFE6FF3B
:101A9000E1CFD9FFE2CFDAFFDDEC0DF0C580C5A0C4
:101AA00003D0FDD7C5B0FED7A1B61FD027D804E11B
:101AB000C584C5B4FED70FD0C5AC0FD0C582C5A2B2
:101AC00003D0FDD7C5B2FED7A1B60FD017D8F4E129
:101AD000C584C5B4FED7FD0E0BD0C584C5A403D004
:101AE000FDD7C5B4FED7A1A602D0FF0E01D0000ECF
:101AF000E552E5CFDAFFE7CFD9FF1200FD0EDBCFCD
:0C1B0000E6FF86EC0DF0E552FF08120035
:041B0C00D9CFE6FF48
:101B1000DACFE6FFE1CFD9FFE2CFDAFFFD0EDB50EF
:101B2000C96EC6AE02D0FF0E24D00F0EC614080830
:101B30000FE00F0EC6140B080BE0C6889EA6FED75A
:101B4000C750040B03E1C750010B10E0000E11D089
:101B50000F0EC614080804E00F0EC6140B0809E1A6
:101B6000C7B0FED7DDEC0DF0C5AC02D0FE0E01D043
:0E1B7000000EE552E5CFDAFFE7CFD9FF1200F5
:021B7E00000E57
:101B8000F36E00EE00F0060E01D81200EA6002D0FB
:0E1B9000EE6AFCD7F350E9601200EE6AFCD753
:021B9E0015EE42
:101BA00000F025EE00F0F86A059CA8EC0CF003ECC0
:0A1BB00000F00EEC00F0FBD712006D
:061BBA001F0EC514FDE141
:081BC000C750040BFAE112000A
:081BC800000000000000000015
:101BD0000000C8C8C8C800C8C8C8C8C8C8C8C8C8DD
:101BE000C8C8C8C8C8C8C80000003100000000004C
:041BF00000000020D1
:020000040030CA
:0100010008F6
:010003001EDE
:010006008178
:01000900C036
:00000001FF
