:020000040000FA
:0600000077EF14F012007E
:020006001200E6
:0600080079EF0FF0120079
:02000E000400EC
:10001000552A00000002000084000000832900002F
:1000200000010000D20000004A2900008402000004
:100030003900000048290000C7020000020000004B
:100040005CEC05F0FB0EDBCFF3FFDB06F3500009A1
:100050000AE0AAEC05F0FA0E15EC06F0F3E1151C27
:10006000F1E1010E01D0000E8BEF05F05CEC05F024
:100070003B0EE12402E3E168E652E16E010EDB6A29
:10008000020EDB6AF90EDBCFF6FFFA0EDBCFF7FFCD
:10009000FB0EDBCFF8FF0800F550DF6EDF5002E10A
:1000A000AFEF04F0250EDF5C02E0A2EF04F0030ED8
:1000B000DB6A040EDB6A050EDB6A060EDB6A070EDE
:1000C000DB6AC4EC04F02D0EDF5C0CE02B0EDF5C71
:1000D00009E0200EDF5C06E0230EDF5C03E0300E5B
:1000E000DF5C1AE1DF50300A14E0130A0FE0030A64
:1000F0000AE00B0A05E0060AE4E1030EDB80E1D723
:10010000030EDB82DED7030EDB84DBD7030EDB8638
:10011000D8D7030EDB88D5D72A0EDF5C1BE1C0ECF5
:1001200004F00EEC05F010E0030EDB8008680968AF
:10013000130EDBCF0DF0140EDBCF0EF04CEC0FF0F6
:10014000040E06C0DBFF03D0130EF7EC04F0C4EC82
:1001500004F00BD0090EDB6A65EC05F003E0D9EC86
:1001600005F0FAD7090EF7EC04F0030EDBB0DB98CC
:100170002E0EDF5C1BE1C4EC04F02A0EDF5C0BE109
:10018000C0EC04F00EEC05F003E1130E49EC05F0B1
:10019000C4EC04F00BD0090EDB6A65EC05F003E05B
:1001A000D9EC05F0FAD7090E49EC05F0680EDF5CD2
:1001B00007E1C4EC04F0680EDF5C1DE1030E18D00B
:1001C000740EDF5C17E07A0EDF5C14E0480EDF5C33
:1001D00006E0540EDF5C03E05A0EDF5C02E1020E23
:1001E00007D06C0EDF5C03E06A0EDF5C04E1010EF9
:1001F0009CEC05F0C9DBDF506E0A01E17FD31E0ADB
:1002000001E192D1200A01E18FD13F0A01E149D1F8
:100210001A0A01E146D10D0A01E143D1200A01E1A8
:1002200040D13A0A01E13DD1200A01E13AD1260A42
:1002300001E135D10D0A01E132D11A0A01E1D9D02B
:10024000200A4AE0300A1FE0460A0EE0250A01E0D3
:1002500083D3D950F90FE96EFF0EDA20EA6E010E52
:10026000EE5E000EEE5AEE5AAAEC05F0250EE66E92
:1002700095DB03E1151C01E169D3A6EC05F001E271
:100280006BD3DB2A69D3080EDB6A040EDB5001084E
:1002900006E2040EDB046EEC05F0DB508BDB080E8F
:1002A000DB5009E0030EDB50010B05E172DB01E0DE
:1002B0004DD3080EDB6A64DBEFCFDFFF1EEC06F0E8
:1002C00003E1151C01E142D3A6EC05F001E3DB2AB2
:1002D00060DB01E141D33AD3070EDB5002080FE1A6
:1002E000EAEC05F0030EB1EC05F00E0EEECFDBFFED
:1002F0000F0EEECFDBFF100EEECFDBFF20D0F70EA0
:10030000DBCF17F0F80EDBCF18F0020E175E000EF1
:10031000185AF70E17C0DBFFF80E18C0DBFF17C026
:10032000E9FF18C0EAFFA1EC05F0166A0E0E14C032
:10033000DBFF0F0E15C0DBFF100E16C0DBFF0E0E2D
:10034000DBCFE6FF0F0EDBCFE6FF100EDBCFE6FFC5
:10035000F6EC13F0E552E552E552130E07C0DBFF51
:10036000140E08C0DBFF060EDB5005E0130EE5ECB3
:1003700005F001E26ADB09EC06F002E2130E37DB5E
:10038000CCEC05F006E0040EE5EC05F002E2050E0B
:100390002EDB030EDBB005D0FCDA01E0D7D2080E6D
:1003A000DB6A090EDB6A0E0EDBCFF6FF0F0EDBCF2A
:1003B000F7FF100EDBCFF8FF0800F550DF6EDF50BF
:1003C00014E00FEC06F011E21EEC06F003E1151C40
:1003D00001E1BCD2BBDB01E3DB2A090EDB2AD950E9
:1003E0000E0FE96E000ECBDBE7D7D3DA01E1B4D212
:1003F000ADD2C6DA110EEECFDBFF120EEDCFDBFF72
:10040000110EDBCFE6FF120EDBCFE6FFE8EC13F0B8
:10041000E552E552130EF3CFDBFF140EF4CFDBFFF2
:10042000060EDB5004E0130ED0DB01E20EDB09EC1C
:1004300006F002E2130EDBDAAFDB05E0040EC5DBEB
:1004400002E2050ED4DA030EDBB005D0A2DA01E039
:100450007DD2080EDB6A090EDB6A110EDBCFE9FFE5
:10046000120EDBCFEAFFEFCFDFFFDF5014E0D7DB68
:1004700012E2E4DB03E1151C01E168D267DB01E372
:10048000DB2A090EDB2A110EDB2ADBCFE9FF120E75
:10049000E8E3DB2AE6D77DDA01E15ED257D2030E2C
:1004A000DB8E070EDB0410E195DB040E5ADB0A0E2F
:1004B000EECFDBFF0B0EEECFDBFF0C0EEECFDBFF44
:1004C0000D0EEECFDBFF6CD0070EDB5003082CE1E6
:1004D000030EDBAE0DD0B2DA020E76DAEFCF14F0F7
:1004E000156A166A176A14AE39D01568166835D0C1
:1004F000F70EDBCF15F0F80EDBCF16F0020E155E0F
:10050000000E165AF70E15C0DBFFF80E16C0DBFF03
:1005100015C0E9FF16C0EAFFEFCF14F00A0E14C0B1
:10052000DBFF0B0EDB6A38D0070EDB50020809E157
:10053000030EDBAE04D059DB16AE10D00ED055DB67
:100540000DD0030EDBAE12D079DA020E3DDAF9DA05
:10055000166A176A15AE02D016681768E2DA0C0E32
:1005600016C0DBFF0D0E17C0DBFF1AD0F70EDBCF76
:1005700016F0F80EDBCF17F0020E165E000E175ABB
:10058000F70E16C0DBFFF80E17C0DBFF16C0E9FF41
:1005900017C0EAFFD6DAC5DA0C0EDB6A0D0EDB6A8D
:1005A000060EDB5005E1010EF36E050EF3CFDBFF07
:1005B000150EDB6A160EDB6AD950370F146E000E6B
:1005C000DA20156E390E14C0DBFF3A0E15C0DBFFC2
:1005D000380EDB6A080EDB6A0A0EAEDADF50780AE4
:1005E00012E0200A10E0280A0CE0200A0AE03F0A84
:1005F00006E00D0A02E0200A08E1020E05D0080E0E
:1006000003D0080EDF26100E97DA030EDBBE02D0F1
:10061000DB92DB94DB50800B24E08ADAD890030E67
:10062000EB50000A08E6000EEE5C000EEE58000EDD
:10063000EE58000EEE5815E213DA0B680C680D68E0
:100640000E68B0EC13F00A0E02C0DBFF0B0E03C005
:10065000DBFF0C0E04C0DBFF0D0E05C0DBFF2D0E13
:1006600008D0030EDBA202D02B0E03D0DBA408D0EF
:10067000200EF36E170EF3CFDBFF150EDB2A02D030
:10068000170EDB6A050EDB5003E1B7D901E189D013
:10069000260E146E290E156E000E166E070EDBCF99
:1006A00017F0186A196A1A6A17C00BF018C00CF014
:1006B00019C00DF01AC00EF0D3D91BEC14F0145071
:1006C0000224F36E15500320F46E16500420F86EC9
:1006D000F4CFF7FFF3CFF6FF0800090EF5CFDBFFED
:1006E000580EDF5C0FE1610EF36E090E7BD90AE351
:1006F000200E146E090EDBCFE7FF1450E75E090EE3
:10070000E7CFDBFF070EDBCF14F0156A166A176A16
:100710000FDA14C00BF015C00CF016C00DF017C0A6
:100720000EF0EECF06F0EECF07F0EECF08F0EFCFF1
:1007300009F01BEC14F009C0EDFF08C0EDFF07C085
:10074000EDFF06C0EFFF390EDBCFE9FFDB063A0E07
:10075000DBCFEAFF01E2DB06090EDBCFEFFF150E70
:10076000DB2A4BD995E1030EDBA61DD06F0EDF5CB3
:1007700006E1C1D918E3150EDB285BDA14D0780E38
:10078000DF5C09E0580EDF5C06E0620EDF5C03E030
:10079000420EDF5C08E1020EF36E160EF3CFDBFFB4
:1007A00002D0150EDB6A030EDB50100B0EE0040EB8
:1007B000DBCF14F0050EDB50D880145406E2060E91
:1007C000DB5003E1040EDB5034DA95D90AE2050E62
:1007D000DBCFE7FF150EDB50E75E050EE7CFDBFF53
:1007E00002D0050EDB6A040EDBCF14F0160E45D9DD
:1007F000D880145414E2160EDBCFE6FF150EDBCFC3
:10080000E6FF040EDBCFE6FF050EDB50E552E75CAA
:10081000E552D880E754E552D880E7545FD9030EFB
:10082000DB50010B0BE1080EDB5008E0B2D801E011
:100830008DD0080EDB50BED8080EDB6A170EDB50D9
:1008400007E088D9170EF1D903E1151C01E17ED02C
:10085000160EDB5016E07ED9300EE66E9FD802E110
:10086000151C74E077D9DFCFE6FFF3EC12F0E55208
:10087000E552E552F4CF15F00001F31C02E1151C1E
:1008800065E0050EDBCF14F0160EDB50D880145453
:1008900009E2050EDBCFE7FF160EDB50E75E050E23
:1008A000E7CFDBFF300EE66E050ECBD94FE1390EF8
:1008B000DB2ADBCFE9FF3A0E01E3DB2ADBCFEAFFDD
:1008C000090EEFCFDBFFDB500EE044D9090EADD9A6
:1008D00002E1151C3BE0390EDB2ADBCFE9FF3A0EC3
:1008E000EDE3DB2AEBD755D831E1160EDBCFE6FF7F
:1008F000080EC3D8E552E7245DD82ED0070EDB5092
:10090000030A1CE0010A14E0030A07E07BD9DBCFED
:10091000EEFF020EDBCFEDFF1FD0F5D8196A17AE40
:1009200002D0186819682CD8BCD819C0EEFF14D0B2
:10093000EAD817BE186824D8B4D80ED063D9DBCF54
:10094000EFFF0AD07BD905E1151C03E1F368F468D9
:1009500010D0FCD801E3DB2A79D94BEF00F0010E6F
:10096000DBCF14F0020EDBCF15F014C0F3FF15C07F
:10097000F4FF3B0EE15C02E2E16AE552E16ECBD0AE
:1009800029D9020EB1EF05F061D90800F550DF6EEC
:100990001200200EE66E080E21EF06F0F3EC12F0C6
:1009A000E552E552E552F3CF14F0F4CF15F0000113
:1009B000F31C1200146E156AD950010F4DD9145052
:1009C000EE261550ED221200185E000E195AF70E91
:1009D00018C0DBFFF80E19C0DBFF18C0E9FF19C013
:1009E000EAFF1200DBCFF4FFF350F45C1200DB509F
:1009F000E76E040EE7CFDBFF12000A0EDBCF14F028
:100A00000B0EDBCF15F00C0EDBCF16F00D0EDBCF8F
:100A100017F014501510161017101200130EEECF09
:100A2000DBFF140EEDCFDBFF130EDBCF14F0140E43
:100A3000DBCF15F00001800E15141200F70EDBCF8E
:100A400018F0F80EDBCF19F01200050EDB50E66E41
:100A5000D950130F01D9E552E750EE6EED6A12003E
:100A60000A0EDBCF06F00B0EDBCF07F00C0EDBCF50
:100A700008F00D0EDBCF09F01200DBCFE6FF150EFC
:100A8000DBCFE6FF050EDB50E552E724E552E72415
:100A90001200DB50CED8010EF36E060EF3CFDBFF53
:100AA0001200EE50EFCFEAFFE96E16C0EEFF17C05E
:100AB000EEFF18C0EEFF1200D9CFE6FFDACFE6FF57
:100AC000E1CFD9FFE2CFDAFF1200DFCFE6FFE66A1F
:100AD00055EC14F0E552E552F3501200E76E080EA3
:100AE000E7CFDBFF1200EECF14F0EECF15F0EFCF23
:100AF00016F0176A1200050EDBCF14F0150EDB504E
:100B0000D88014541200010EDBCF16F0020EDBCF9A
:100B100017F0186A1200E552E5CFDAFFE7CFD9FFE8
:100B200012000A0E14C0DBFF0B0E15C0DBFF120013
:100B3000D9500A0F2CEF06F0F36E070EF3CFDBFF50
:100B40001200EECF14F0EFCF15F01200010EDB2AE9
:100B5000020E1200FC0EDBCFE6FFFD0EDBCFE6FF40
:100B60001200145E000E155AF70E14C0DBFFF80ECB
:100B700015C0DBFF14C0E9FF15C0EAFF1200DA2040
:100B8000EA6EEF2AEECFF6FF000EEF22EECFF7FF70
:100B9000EF22EECFF8FF1200040EDBCFE6FF130EBC
:100BA000DB50E552E75C9ADFDB5004DF060EDB50DA
:100BB0001200090EDB500A0DF350DF24D00FE76E50
:100BC000090EE7CFDBFFC4EF04F0DB50F36E050E38
:100BD000F2EF04F0F70EDBCF14F0F80EDBCF15F0D8
:100BE0001200DFCFE6FFCEEF04F028DF030EECDECD
:100BF00073EF05F020EC00F0E552E552E552E552C6
:100C000000091200BDDEEE50EFCFEAFFE96E010EE3
:100C10001200130EDB50F36E040EF2EF04F0040E1C
:100C2000DB50F36E090EF2EF04F0DBCFE6FFCEEF00
:100C300004F0E76E050EE7CFDBFF12008BDFF1EF6C
:100C400005F0DBCFE6FF86DFFAEF05F0D950F90FAC
:100C5000E96EFF0EBFEF05F0E96E000EDA20EA6ED6
:020C6000120080
:0E0C620067EC0CF0ADEC0CF0040EE66E020E2A
:100C7000E66E2CD8E552E552220EE66E020EE66EC6
:100C800025D8E552E552400EE66E020EE66E1ED8FD
:100C9000E552E5525E0EE66E020EE66E17D8E5529C
:100CA000E5520CEC0DF01200D9CFE6FFE1CFD9FFF1
:100CB0000101C26BC36B0101010EC25D000EC3597D
:100CC00001E2F9D7E552E7CFD9FF1200D9CFE6FF0D
:100CD000E1CFD9FFFD0EDBCFE6FFFE0EDBCFE6FF57
:100CE0008B0EE66E230EE66E000EE66E63EC12F0DF
:100CF000146E050EE15E1450E552E7CFD9FF1200E5
:100D0000D9CFE6FFE1CFD9FFFD0EDBCFE6FFFE0E28
:100D1000DBCFE6FF7E0EE66E230EE66E000EE66E7D
:100D200063EC12F0146E050EE15E1450E552E7CF4D
:100D3000D9FF1200D9CFE6FFE1CFD9FFD950FB0F81
:100D4000E96EFF0EDA20EA6EEECFE6FFEECFE6FFA9
:100D5000EECFE6FFEFCFE6FF710EE66E230EE66EF6
:100D6000000EE66E63EC12F0146E070EE15E145096
:100D7000E552E7CFD9FF1200D9CFE6FFE1CFD9FF87
:100D80001E0EE1260101010ED41901E1D5514DE1FC
:100D9000D9CFE9FFDACFEAFF6D0EEE6E6F0EEE6E81
:100DA000740EEE6E650EEE6E750EEE6E720EEE6EDB
:100DB0005F0EEE6E700EEE6E770EEE6E6D0EEE6ED8
:100DC0000D0EEE6E0A0EEE6EEE6AEE6AEE6AEE6AD8
:100DD000EE6AEE6AEE6AEE6AEE6AEE6AEE6AEE6A53
:100DE000EE6AEE6AEE6AEE6AEE6AEE6AD9CFE6FF66
:100DF000DACFE6FF6BDFE552E552FB0EDB50E8B0E1
:100E0000808CE8A0809CFD0EDB50E8B0808EE8A0CE
:100E1000809E4B0E02018A6F8B6B4B0E02018C6F12
:100E20008D6B8AC2BEFF8CC2BBFF010EF36EF46AEB
:100E300000D01E0EE15C02E2E16AE552E16EE5528D
:100E4000E7CFD9FF120002018A6B8B6B02018C6B1A
:100E50008D6B809C809E8AC2BEFF8CC2BBFF12003D
:100E6000D9CFE6FFE1CFD9FF040EE126DE6ADD6AC5
:100E7000020EDB6A030EDB6A020EDBCF14F0030EF8
:100E8000DBCF15F00C0E145C000E155841E2020E7B
:100E9000DBCF16F0030EDBCF17F0010ED89016361D
:100EA0001736E806FBE1FD0EDB501624E96EFE0E58
:100EB000DB501720EA6EEECF14F0EFCF15F0DECF47
:100EC0001AF0DDCF1BF0D8901A361B36FD0EDB5022
:100ED0001A24E96EFE0EDB501B20EA6EEECF18F0EE
:100EE000EFCF19F019501518E8AE02D0153404D020
:100EF0001450185C1550195805E2020EDBCFDEFFC6
:100F0000DBCFDDFF020EDB2A030E01E3DB2AB4D7C1
:100F1000DECF14F0DDCF15F014C0F3FF15C0F4FFE1
:100F200000D0040EE15C02E2E16AE552E16EE552B6
:100F3000E7CFD9FF12000201026B036B0201006BC5
:100F4000016BC30EC2140009C26EC280C282C2B25B
:100F5000FED7C4500201026F036B02C2E6FF03C258
:100F6000E6FF5A0EE66E230EE66E000EE66E63ECAA
:100F700012F0146E050EE15E1450C30EC214040983
:100F8000C26EC280C282C2B2FED7C4500201006FDC
:100F9000016B00C2E6FF01C2E6FF440EE66E230EBF
:100FA000E66E000EE66E63EC12F0146E050EE15E66
:100FB00014500201B40ED8800055000E015505E210
:100FC00002C2D2F103C2D3F123D00201B40ED88001
:100FD0000255000E035505E200C2D2F101C2D3F161
:100FE00017D0020102010051020102250101D26F56
:100FF000020102010151020103210101D36F010E1F
:101000000F0B010105E0D890D333D233E806FBE1A2
:10101000D2C1E6FFD3C1E6FF2B0EE66E230EE66ECD
:10102000000EE66E63EC12F0146E050EE15E1450D5
:10103000D2C1F3FFD3C1F4FF00D012000201006B54
:10104000016BC30EC2140409C26EC280C282C2B256
:10105000FED7C4500201006F016B00C2E6FF01C25F
:10106000E6FF440EE66E230EE66E000EE66E63ECBF
:1010700012F0146E050EE15E145000C2F3FF01C2BF
:10108000F4FF00D012000201026B036BC30EC21406
:101090000009C26EC280C282C2B2FED7C450020131
:1010A000026F036B02C2E6FF03C2E6FF5A0EE66E52
:1010B000230EE66E000EE66E63EC12F0146E050E63
:1010C000E15E145002C2F3FF03C2F4FF00D012002D
:1010D000120E02017DAF02D0D89003D07C5D000ECD
:1010E0007D5901E39AD0060E02017DAF02D0D8905F
:1010F00003D07C5D000E7D5937E2010EE66EE66A94
:10110000000EE66EE66A38DEE552E552E552E5523B
:10111000F3CF98F2F4CF99F20201BA69BB6BBAC26D
:10112000E6FF400EE66E30EC0CF0E552E552040EA0
:10113000E66EE66AB9DDE552E55285DE0201BA6B7C
:10114000BB6BBAC2E6FF400EE66E30EC0CF0E55227
:10115000E55202017C2B000E7D23040EE66EE66A4A
:10116000A3DDE552E55258D0120E02017DAF02D048
:10117000D89003D07C5D000E7D594EE2000EE66EE5
:10118000E66A010EE66EE66AF7DDE552E552E552E3
:10119000E552F3CF98F2F4CF99F20201BA69BB6B32
:1011A000BAC2E6FF400EE66E30EC0CF0E552E552B6
:1011B000040EE66EE66A78DDE552E55244DE020191
:1011C000BA6BBB6BBAC2E6FF400EE66E30EC0CF0B9
:1011D000E552E55202017C2B000E7D23ACDEF3CFFD
:1011E00014F0F4CF15F07EC2E9FF7FC2EAFFD89079
:1011F000E936EA36D90EE926010EEA2214C0EEFFDE
:1012000015C0EDFF02017E2B000E7F23040EE66E5B
:10121000E66A4ADDE552E5525BD7D90EE66E010E6D
:10122000E66E1EDEE552E552F3CF80F2F4CF81F296
:1012300080C280F281C281F202010C0ED8808057F8
:10124000000E815780C2E6FF81C2E6FF120EE66EF5
:10125000230EE66E000EE66E63EC12F0146E050EC1
:10126000E15E145080C2F3FF81C2F4FF00D012008F
:10127000D9CFE6FFE1CFD9FF0101010ED41901E179
:10128000D55152E10201826B836BFD0EDBCF14F06E
:10129000FE0EDBCF15F002011450825D155083590C
:1012A00043E2010EE66EE66A000EE66EE66A64DD73
:1012B000E552E552E552E552F3CF98F2F4CF99F2B8
:1012C0003F0E0201BA6FBB6BBAC2E6FF400EE66E7C
:1012D00030EC0CF0E552E552040EE66EE66AE4DC12
:1012E000E552E552B0DD0201BA6BBB6BBAC2E6FF54
:1012F000400EE66E30EC0CF0E552E55202017C2B1C
:10130000000E7D2382C2E6FF83C2E6FFF9DCE552D0
:10131000E552040EE66EE66AC7DCE552E5520201CC
:10132000822B000E8323B1D7E552E7CFD9FF1200FD
:101330000101D451D51110E1010E0101D46FD56B1B
:10134000F80EE66E220EE66E000EE66E63EC12F00C
:10135000E552E552E55217D00101D46BD56B070E6B
:101360000101BC6FBD6B130E02017C6F7D6B6BDDE9
:10137000DB0EE66E220EE66E000EE66E63EC12F0F9
:10138000E552E552E5521200D9CFE6FFE1CFD9FF91
:10139000FD0EDBCF14F0FE0EDBCF15F0153404E2AA
:1013A00014506408000E155405E2C00E0201BA6F15
:1013B000BB6B59D0FD0EDBCF14F0FE0EDBCF15F06A
:1013C000153404E214505008000E155405E2E00EE6
:1013D0000201BA6FBB6B47D0FD0EDBCF14F0FE0EDF
:1013E000DBCF15F0153404E214503C08000E155400
:1013F00005E2F00E0201BA6FBB6B35D0FD0EDBCFFC
:1014000014F0FE0EDBCF15F0153404E2145028085A
:10141000000E155405E2F80E0201BA6FBB6B23D023
:10142000FD0EDBCF14F0FE0EDBCF15F0153404E219
:1014300014501408000E155405E2FC0E0201BA6F98
:10144000BB6B11D0FD0EDBCF14F0FE0EDBCF15F021
:10145000153404E214500008000E155404E2FE0E88
:101460000201BA6FBB6BBAC2E6FF400EE66E30EC0B
:101470000CF0E552E552E552E7CFD9FF1200D9CF83
:10148000E6FFE1CFD9FFFD0EDBCF14F0FE0EDBCF80
:1014900015F0153404E214509608000E155405E2B8
:1014A0003F0E0201BA6FBB6B04D07F0E0201BA6F10
:1014B000BB6BBAC2E6FF400EE66E30EC0CF0E552B4
:0A14C000E552E552E7CFD9FF120014
:0614CA00800EC76E280E23
:1014D000C66EC56A130EC86E1200D9CFE6FFE1CF03
:1014E000D9FF1F0EC51403E1C750040B01E0F9D763
:1014F000C580C5B0FED7FE0EDB50C96EC7B0FED7A3
:10150000C5BCFED71F0EC51403E1C750040B01E094
:10151000F9D7C584C5B4FED79E96000E00D0E5521B
:10152000E7CFD9FF1200D9CFE6FFE1CFD9FF060EF2
:10153000E126040EDB6A0A0EF36E050EF3CFDBFF25
:10154000FE0EDBCFE6FF35EC13F0E552E76E040E3E
:10155000E7CFDBFF050EDB06040EDB500EE0050EC9
:10156000DBCF14F0000EE76E1418E8AE02D014348E
:1015700003D0E750D8801454E3E30A0EF36E050E4F
:10158000F3CFDBFFFD0EDBCFE6FFFE0EDBCFE6FF8A
:10159000EDEC10F0E552E552020EF3CFDBFF030E47
:1015A000F4CFDBFF050EDB06030EDB500EE0050E6D
:1015B000DBCF14F0000EE76E1418E8AE02D014343E
:1015C00003D0E750D8801454DDE3030EDB5002E073
:1015D000DF6806D0020EDB50E76E010EE7CFDBFFBF
:1015E0000A0EF36E050EF3CFDBFFFD0EDB28E66E71
:1015F000FE0EDBCFE6FFEDEC10F0E552E552020EF9
:10160000F3CFDBFF030EF4CFDBFF050EDB06030E8B
:10161000DB500EE0050EDBCF14F0000EE76E141861
:10162000E8AE02D0143403D0E750D8801454DDE380
:10163000030EDB5003E0010EDB6803D0020EDB502B
:10164000DF6EDECF14F0DDCF15F014C0F3FF15C050
:10165000F4FF00D0060EE15C02E2E16AE552E16EC1
:10166000E552E7CFD9FF1200D9CFE6FFE1CFD9FF8E
:10167000020EE126DF6ADE520A0EDD6EFE0EDBCFC1
:10168000E6FF35EC13F0E552DF6E010EDB06DF50AE
:101690000EE0010EDBCF14F0000EE76E1418E8AE7A
:1016A00002D0143403D0E750D8801454E7E3DE525C
:1016B0000A0EDD6EFD0EDBCFE6FFE66AFE0EDBCF27
:1016C000E6FF16EC12F0E552E552E552DF6E010E30
:1016D000DB06DF500EE0010EDBCF14F0000EE76EEC
:1016E0001418E8AE02D0143403D0E750D880145454
:1016F000E1E3020EE15C02E2E16AE552E16EE552ED
:10170000E7CFD9FF1200D9CFE6FFE1CFD9FFE652EC
:10171000DF6A1F0EC51403E1C750040B01E0F9D7BF
:10172000C580C5B0FED7FE0EDB50C96EC7B0FED770
:10173000C5BCFED71F0EC51403E1C750040B01E062
:10174000F9D7DFCF14F0156A14BE1568FC0EDB5014
:101750001424E96EFD0EDB501520EA6EEF50C96EC1
:10176000C7B0FED7C5BCFED7DF50DF2A146E156A9E
:1017700014BE1568FC0EDB501424E96EFD0EDB5020
:101780001520EA6EEF50D6E11F0EC51403E1C750D5
:10179000040B01E0F9D7C584C5B4FED79E96000EB0
:1017A00000D0E552E552E7CFD9FF1200D9CFE6FFCE
:1017B000E1CFD9FFE652DF6A1F0EC51403E1C7501F
:1017C000040B01E0F9D7C580C5B0FED7FE0EDB28BB
:1017D000C96EC7B0FED7C5BCFED71F0EC51403E146
:1017E000C750040B01E0F9D7C586C7A0FED7DFCFED
:1017F00014F0156A14BE1568FC0EDB501424E96E53
:10180000FD0EDB501520EA6EC9CFEFFFC95002E094
:10181000C59A01D0C58AC588C5B8FED7DF50DF2A72
:10182000146E156A14BE1568FC0EDB501424E96EA4
:10183000FD0EDB501520EA6EEF50CFE11F0EC514F0
:1018400003E1C750040B01E0F9D7C584C5B4FED746
:101850009E96000E00D0E552E552E7CFD9FF120068
:10186000D9CFE6FFE1CFD9FFE652DF6A1F0EC514DC
:1018700003E1C750040B01E0F9D7C580C5B0FED71E
:10188000FE0EDB50C96EC7B0FED7C5BCFED71F0E1B
:10189000C51403E1C750040B01E0F9D7FD0EDB507E
:1018A000C96EC7B0FED7C5BCFED71F0EC51403E175
:1018B000C750040B01E0F9D7C584C5B4FED79E9686
:0E18C000DF5000D0E552E552E7CFD9FF12000D
:0218CE008F0E7B
:1018D000D3147009D36EF288F19C939AC29AC2987D
:1018E000C296C294CF0EC1140009C16EF00EC1148D
:1018F0000C09C16EF80EC0140609C06EC70EC014E4
:101900003809C06EC09EC2809E9C9D8CF19CF19A4D
:10191000C282C186C184C192C190D59CD59AD59608
:10192000F80ED5140709D56ED58EF28AFD0ED76E46
:10193000AF0ED66E65EC0AF0AC98AC84B896330E58
:10194000AF6EAB8EAC8A9E989D98AB889280928247
:1019500093929380F28CF28E1200929C929E9288C7
:10196000948094929494CA80CA927C0ECB6E870E17
:10197000CA144809CA6EBD98BD9ABA98BA9ABD866B
:10198000BD84BA86BA849D92F28CCA848AC208F059
:101990008BC209F0F7EC0DF007C014F008C015F089
:1019A00009C016F00AC017F00C6A0D6A200E0E6E00
:1019B000400E0F6E14C007F015C008F016C009F0F5
:1019C00017C00AF00CEC0EF09FEC0EF00950BE6E42
:1019D0008CC208F08DC209F0F7EC0DF007C014F0CE
:1019E00008C015F009C016F00AC017F00C6A0D6A9D
:1019F000200E0E6E400E0F6E14C007F015C008F0DA
:101A000016C009F017C00AF00CEC0EF09FEC0EF0B7
:101A10000950BB6EF28E1200D9CFE6FFE1CFD9FF9D
:101A20001E0EE126D9CFE9FFDACFEAFF660EEE6E91
:101A3000690EEE6E6E0EEE6E200EEE6E740EEE6E93
:101A4000650EEE6E730EEE6E740EEE6E200EEE6E82
:101A50006C0EEE6E650EEE6E640EEE6E0D0EEE6E9C
:101A60000A0EEE6EEE6AEE6AEE6AEE6AEE6AEE6AF2
:101A7000EE6AEE6AEE6AEE6AEE6AEE6AEE6AEE6AA6
:101A8000EE6AEE6AFE0E0201BA6FBB6BBAC2E6FFE7
:101A9000400EE66E30EC0CF0E552E552010EE66EBB
:101AA000E66A54EC06F0E552E552FD0E0201BA6F0B
:101AB000BB6BBAC2E6FF400EE66E30EC0CF0E552AE
:101AC000E552010EE66EE66A54EC06F0E552E55288
:101AD000FB0E0201BA6FBB6BBAC2E6FF400EE66EA8
:101AE00030EC0CF0E552E552010EE66EE66A54EC7D
:101AF00006F0E552E552F70E0201BA6FBB6BBAC2AF
:101B0000E6FF400EE66E30EC0CF0E552E552010EB9
:101B1000E66EE66A54EC06F0E552E552EF0E02017D
:101B2000BA6FBB6BBAC2E6FF400EE66E30EC0CF04B
:101B3000E552E552010EE66EE66A54EC06F0E55217
:101B4000E552DF0E0201BA6FBB6BBAC2E6FF400E70
:101B5000E66E30EC0CF0E552E552010EE66EE66AF8
:101B600054EC06F0E552E552BF0E0201BA6FBB6BB2
:101B7000BAC2E6FF400EE66E30EC0CF0E552E552DC
:101B8000010EE66EE66A54EC06F0E552E5527F0E71
:101B90000201BA6FBB6BBAC2E6FF400EE66E30ECD4
:101BA0000CF0E552E552010EE66EE66A54EC06F0E2
:101BB000E552E5520201BA69BB6BBAC2E6FF400EBC
:101BC000E66E30EC0CF0E552E552D9CFE6FFDACF05
:101BD000E6FF66EC06F0E552E5521E0EE15C02E21D
:0E1BE000E16AE552E16EE552E7CFD9FF12004F
:021BEE00019E56
:101BF00008D0019E09AE05D0086C091EE86A0922CA
:101C0000018E09C003F008C002F0136A126A8E0E3A
:101C1000046E056AE2EF0EF0016A1EEC0FF036EC7E
:101C20000FF001B6C6EF0EF001A205D001B8C6EF65
:101C30000EF0CDEF0EF001AA05D001B0C6EF0EF008
:101C4000CDEF0EF001B002D001A802D0D9EF0EF016
:101C5000056A0F500A24046EE86A05227E0E045EAF
:101C6000E86A055A126A136A026A036A0E50090288
:101C7000F4CF03F0F3CF02F00D500902F350132616
:101C8000F4500222000E03220E500802F3501326D5
:101C9000F4500222000E03220C500902F3501226C7
:101CA000F4501322000E022203220D500802F350BA
:101CB0001226F4501322000E022203220E500702B5
:101CC000F3501226F4501322000E022203220C506D
:101CD0000802F4501226000E1322022203220D5095
:101CE0000702F4501226000E132202220322E2EF12
:101CF0000EF0006A0EAE82EF0EF00D6C0E1EE86A5A
:101D00000E22001E09AE8AEF0EF0086C091EE86A6A
:101D10000922001E3FEC14F009BE9AEF0EF000AE4F
:101D2000000C086C091EE86A0922046C051EE86AAA
:101D30000522000C00BE91EF0EF00188FF0C016A35
:101D40001EEC0FF001B6A9EF0EF001A20AD001B40B
:101D500003D07F0E096E19D0800E096E16D0096A65
:101D600014D001B0FCD7870E0A60F1D77E0E0A644A
:101D7000F6D7860E0A5C04E0D89009320A2AF9D711
:101D800001A403D0096C09AEEAD712007F0E0A6ED7
:101D9000FF0E096E086E076E12007F0E01BEFF0E69
:101DA0000A6E02D07F0E0A6E800E096E086A076AFC
:101DB000F3D701AE04D0800E0A6E096AF7D70A6A1B
:101DC000096AF4D70350021013101210F8E005BE90
:101DD000F0D703BE0CD004500510EBE0D8901236BB
:101DE0001336023603360406D8A00506F2D705508E
:101DF000D4E10428D2E012AE11D07F0E121402E119
:101E000013A00CD0132AE86A0222032207E3D88029
:101E1000033202321332042A0428BFE00450C9E01E
:101E200013C007F002C008F00334096E04300A6ED4
:101E300009320A9E01BE0A8ECCEF0EF009360A3630
:101E400002E30184017E06E101800A6A096A086AE8
:101E5000076A12000A2803E0D88009321200D890DD
:101E6000093202E101821200018612000E360F369D
:101E700002E3018C017E06E101880F6A0E6A0D6A99
:101E80000C6A12000F2803E0D8800E321200D8909E
:101E90000E32EAE1018A120009C013F008C012F004
:101EA00008500D02F4CF07F0F3CF06F009500E02F0
:101EB000F4CF09F0F3CF08F00D02F3500726F450E9
:101EC0000822E86A092212500E02F3500726F45045
:101ED0000822E86A09220EAE72EF0FF01250085E77
:101EE0001350095A13AE000C0D50085E0E50095ADB
:021EF000000CE4
:0E1EF200DACFE4FFE2CFDAFFE9CFE4FFEACF78
:101F0000E4FFF6CFE4FFF7CFE4FFF8CFE4FFF5CF2F
:101F1000E4FFF3CFE4FFF4CFE4FFFACFE4FFFBCF1D
:101F2000E4FF00EE00F0140EE80403E3EECFE4FF5C
:101F3000FBD700EE14F0080EE80403E3EECFE4FF55
:101F4000FBD7E652F2A21CD0F292020EE66EE66ACF
:101F500054EC06F0E552E552BE0EE66E220EE66E39
:101F6000000EE66E63EC12F0E552E552E55298EC95
:101F700009F0020EE66EE66A54EC06F0E552E55210
:101F8000F2A4FCD0F294FD0ED76EAF0ED66E010116
:101F9000C22B000EC323818AFDC1E6FFFEC1E6FF0E
:101FA00080EC06F0E552E5520101010EFD1901E158
:101FB000FE514AE1960EE66E010EE66E66EC06F004
:101FC000E552E5521EEC08F0F3CFC6F1F4CFC7F1AD
:101FD00043EC08F0F3CFC4F1F4CFC5F101010101E6
:101FE000C4510101C6250101C06F01010101C551A4
:101FF0000101C7210101C16F010E0F0B010105E0B5
:10200000D890C133C033E806FBE1C0C1E6FFC1C1CF
:10201000E6FFC4EC09F0E552E5520101640ED880F8
:10202000C655000EC75505E223EC07F00CEC0DF089
:102030000BD00101640ED880C455000EC55504E2D2
:1020400023EC07F00CEC0DF0C30EC2140809C26EAD
:10205000C280C282C2B2FED7C4500101B46FB56B58
:102060000101040EB65D000EB75917E2B6C1E9FFD3
:10207000B7C1EAFF010ED890E936EA36E806FBE17F
:10208000CA0EE926010EEA22B4C1EEFFB5C1EDFF8A
:102090000101B62B000EB72370D0CCC1CAF1CDC15F
:1020A000CBF1CEC1CCF1CFC1CDF1D0C1CEF1D1C1F8
:1020B000CFF1B4C1D0F1B5C1D1F101010101CA51D3
:1020C0000101CC251E6E01010101CB510101CD2181
:1020D0001F6E1E500101CE251C6E1F500101CF2125
:1020E0001D6E1C500101D0250101C86F1D5001015A
:1020F000D1210101C96F040E0D6E0E6AC8C108F02E
:10210000C9C109F079EC0EF008C0C8F109C0C9F1E5
:10211000B40E0101C9AF02D0D89003D0C85D000E43
:10212000C95909E3C8C1E6FFC9C1E6FF80EC06F062
:10213000E552E55216D05A0EE66E010EE66E66ECDA
:1021400006F0E552E552C8C1E6FFC9C1E6FF80ECE2
:1021500006F0E552E55223EC07F0070E0101BC6FD3
:10216000BD6B0101FD51FE1108E1C8C1E6FFC9C107
:10217000E6FF3FEC0AF0E552E55201D0819A9EACB1
:1021800002D0C2929E9C9EA200D0E55200EE1BF0AF
:10219000080EE80403E3E5CFEDFFFBD700EE13F0F4
:1021A000140EE80403E3E5CFEDFFFBD7E5CFFBFF1B
:1021B000E5CFFAFFE5CFF4FFE5CFF3FFE5CFF5FF7D
:1021C000E5CFF8FFE5CFF7FFE5CFF6FFE5CFEAFF74
:0A21D000E5CFE9FFE5CFDAFF1100CB
:0621DA00D9CFE6FFDACFC9
:1021E000E6FFE1CFD9FFE2CFDAFF9CEC14F0C58027
:1021F000C5A003D0FDD7C5B0FED7A1B63BD0FD0E1C
:1022000057D804E0C584C5B4FED71ED0C5BC3DD0A8
:10221000FC0E4ED804E0C584C5B4FED715D0C5BCAD
:102220002FD0C582C5A203D0FDD7C5B2FED7A1B6B7
:1022300021D0FD0EDB28E66E77EC13F0E5520009A5
:1022400005E0C584C5B4FED7FD0E23D0C5BC14D0AF
:10225000C586C5B6FED7C58AC588C5A803D0FDD733
:10226000C5B8FED7C584C5A403D0FDD7C5B4FED775
:10227000A1A612D0F3680ED0C584C5B4FED703D092
:10228000C584C5B4FED7FE0E04D0C584C5B4FED740
:10229000FE0EF36EF46806D0C950146E156AF36E24
:1022A00015C0F4FFE552E5CFDAFFE7CFD9FF120002
:0E22B000DBCFE6FF77EC13F0E55200091200D9
:0222BE00496E67
:1022C00074657272757074696F6E2074656C656385
:1022D0006F6D6D616E6465200D0A00496E746572E4
:1022E00072757074696F6E2074656C65636F6D6D67
:1022F000616E6465200D0A0044656D6172726167EC
:10230000652074656C65636F6D6D616E6465200D2D
:102310000A00416E676C65206465206C276F626AF5
:102320006574203A202564200D0A004469737461A5
:102330006E6365206D6F79656E6E65203A20256449
:10234000200D0A00436170746575722064726F69B4
:1023500074203A202564200D0A004361707465756D
:102360007220676175636865203A202564200D0A34
:10237000007662617474203D2025660D0A00766245
:0E238000617474203D2025640D0A0025730051
:02238E000E0E31
:10239000F66E000EF76E000EF86E02010900F550A1
:1023A000C26F0900F550C36F03E1C26701D03DD091
:1023B0000900F550BD6F0900F550BE6F0900F550DA
:1023C000BF6F09000900F550E96E0900F550EA6E8B
:1023D000090009000900F550C06F0900F550C16FF0
:1023E00009000900F6CFC4F2F7CFC5F2F8CFC6F264
:1023F000BDC2F6FFBEC2F7FFBFC2F8FF0201C05365
:1024000002E1C15307E00900F550EE6EC007F8E2A3
:10241000C107F9D7C4C2F6FFC5C2F7FFC6C2F8FFAD
:0C2420000201C207000EC35BBFD7120010
:04242C00D9CFE6FF1F
:10243000DACFE6FFE1CFD9FFE2CFDAFF9CEC14F070
:10244000C580C5A003D0FDD7C5B0FED7A1B62BD09F
:10245000FD0E32D804E0C584C5B4FED711D0C5BC8A
:1024600015D0FC0E29D804E0C584C5B4FED708D029
:10247000C5BC08D0FB0E20D80EE0C584C5B4FED77D
:10248000FD0E14D0C584C5B4FED703D0C584C5B431
:10249000FED7FE0E0BD0C584C5A403D0FDD7C5B4AE
:1024A000FED7A1A602D0FF0E01D0000EE552E5CF67
:1024B000DAFFE7CFD9FF1200DBCFE6FF77EC13F0AE
:0624C000E55200091200C4
:0A24C600D9CFE6FFDACFE6FFE1CF41
:1024D000D9FFE2CFDAFFE652E652E652E652D95091
:1024E000FB0F146EFF0EDA20156E14C0DEFFDD6EDA
:1024F000DECFE6FFDDCFE6FFFB0EDBCFE6FFFC0E17
:10250000DBCFE6FFFD0EDBCFE6FFC7C2E6FFC8C2AA
:10251000E6FF36EC00F0146E070EE15C02E2E16AC1
:10252000E552E16E1450020EF3CFDBFF030EF4CF41
:10253000DBFF020EDBCF14F0030EDBCF15F014C06F
:10254000F3FF15C0F4FF040EE15C02E2E16AE5521C
:0E255000E16EE552E5CFDAFFE7CFD9FF1200CA
:02255E00010179
:10256000FD6BFE6B0101D46BD56B31EC06F0818AFB
:102570000101010ED41901E1D55133E10201965157
:1025800097112FE168EC08F0F3CF9AF2F4CF9BF2A9
:102590009AC214F09BC215F01406000E155A14C00E
:1025A000E6FF15C0E6FF38EC09F0E552E552010EF2
:1025B0000101FD6FFE6B010E0201966F976B23EC1C
:1025C00007F0000EE66EE66A000EE66EE66ABCEC08
:1025D00006F0E552E552E552E552F3CF98F2F4CF1A
:0625E00099F2C6D71200BB
:0A25E600D9CFE6FFDACFE6FFE1CF20
:1025F000D9FFE2CFDAFFFB0EDBCF14F0FC0EDBCF0E
:1026000015F00001800E15141AE1FB0EDBCFE9FF77
:10261000FC0EDBCFEAFFEECFF3FFEDCFF4FFEE2AA7
:10262000000EEF22F3CFE9FFF4CFEAFFFD0EDBCF80
:10263000EFFFEF50156AF36E15C0F4FF10D0FB0EDC
:10264000DB50FE0806E1FD0EDBCFE6FF85EC14F063
:1026500005D0FD0EDBCFE6FF03EC00F0E552E552BE
:0A266000E5CFDAFFE7CFD9FF120043
:06266A00D9CFE6FFDACF34
:10267000E6FFE1CFD9FFE2CFDAFF9CEC14F0C58092
:10268000C5A003D0FDD7C5B0FED7A1B61FD027D8AF
:1026900004E1C584C5B4FED70FD0C5AC0FD0C58248
:1026A000C5A203D0FDD7C5B2FED7A1B60FD017D8AB
:1026B000F4E1C584C5B4FED7FD0E0BD0C584C5A416
:1026C00003D0FDD7C5B4FED7A1A602D0FF0E01D01E
:1026D000000EE552E5CFDAFFE7CFD9FF1200FD0E7D
:0E26E000DBCFE6FF77EC13F0E552FF081200A7
:0226EE00D9CF42
:1026F000E6FFDACFE6FFE1CFD9FFE2CFDAFFFD0E4A
:10270000DB50C96EC6AE02D0FF0E24D00F0EC61429
:1027100008080FE00F0EC6140B080BE0C6889EA633
:10272000FED7C750040B03E1C750010B10E0000EA9
:1027300011D00F0EC614080804E00F0EC6140B08C3
:1027400009E1C7B0FED79CEC14F0C5AC02D0FE0E78
:1027500001D0000EE552E5CFDAFFE7CFD9FF120036
:1027600006500B02F3CF02F0F4CF03F00C02F3504B
:102770000326000EF420046E06500D02F3500426CA
:10278000000EF420056E06500E02F3500526075089
:102790000B02F3500326F4500422000E05220750CA
:1027A0000C02F3500426F450052207500D02F3509A
:1027B000052608500B02F3500426F4500522085059
:1027C0000C02F350052609500B02F35005261200A7
:1027D000FE0EE3CFE9FFFF0EE3CFEAFFF36AF46AF0
:1027E000EE5203E0F34AF42AFBD71200FF0EE3CFC8
:1027F000F8FFE552FF0EE3CFF7FFE552FF0EE3CF00
:10280000F6FFE552E66AE66AE66A0900F55209E073
:10281000FD0EE32A05E1FE0EE32A02E1FF0EE32AA4
:10282000F4D7FD0EE3CF07F0FE0EE3CF08F0FF0E66
:06283000E3CF09F01200E5
:0A283600056A046A036A026A200EB4
:10284000E76ED89006360736083609360236033664
:10285000043605360B50025C0C5003580D500458DA
:102860000E50055809E30B50025E0C50035A0D50F0
:0E287000045A0E50055A062AE72EE4D712002D
:02287E00056AE9
:10288000046A100EE76ED89008360936043605360D
:102890000D50045C0E50055805E30D50045E0E50BB
:0A28A000055A082AE72EF0D71200AF
:0628AA00F36AF46AFF0E60
:1028B000E124E96EFF0EE220EA6EED6607D02F0EEE
:0E28C000EF6404D03A0EEF6001D0F32A12004C
:0228CE00000EFA
:1028D000F36E00EE00F0060E01D81200EA6002D09E
:0E28E000EE6AFCD7F350E9601200EE6AFCD7F6
:0228EE0015EEE5
:1028F00000F025EE00F0F86A019CC7EC11F0A3ECA3
:0A29000014F0AFEC12F0FBD7120048
:06290A00FF0EE350ACBA21
:1029100004D0AF6AAB8EAC8A949CACA2FED7AD6EED
:06292000F36EF46A1200E0
:0A292600303132333435363738399A
:07293000616263646566004B
:082938001F0EC514FDE1C7509C
:06294000040BFAE1120095
:0229460012007D
:02294800FEFF90
:06294A0000000000000087
:1029500000000000E1FAC742000063FC0000000034
:102960000500626F75636C65200D0A0000000000B1
:102970000000000000000000000000000000000057
:03298000FF000055
:0D298300766261743D7C3000D4D4D4D4D48D
:10299000D4D4D4D4D4D4D4D4D4D4D4D4D4D4D4D4F7
:1029A000D466696E20746573740D0A00000000001F
:1029B00000000000000000000000000000000076A1
:1029C00062617474206F6B0D0A000000000000004B
:1029D00000000000000000000000000000766261BE
:1029E000747420666169626C650D0A000000000065
:1029F00000000000000000000000006172726574B9
:102A000020626F75746F6E0D0A00000000000000F8
:102A10000000000000000000004D65737572652025
:102A2000495220656E206176616E63616E74200D7F
:102A30000A0000000000000C000000000000000080
:102A40000002000000000000000000000000000084
:052A5000000000000081
:0B2A55000000000050726F6A657420E2
:102A600039200D0A000000000000000000000000F6
:102A7000000000000000006269656E76656E7520DA
:102A8000626F75746F6E0D0A000000000000000098
:102A90000000000000696E697469616C697361749B
:102AA000696F6E206F6B0D0A0000000000000000CF
:102AB000000000616666696368616765206C656433
:102AC00073200D0A0000000000000000000000005C
:092AD000000000000000000000FD
:020000040030CA
:0100010008F6
:010003001EDE
:010005008179
:0100060001F8
:00000001FF
